:020000040800F2
:1000000000500020E1670008D9460008DB460008E0
:10001000DD460008DF460008E14600080000000059
:10002000000000000000000000000000E1390008AE
:10003000E346000800000000713A0008E5460008A9
:10004000296800082968000829680008F94600089E
:100050002968000829680008DD3E0008E33E000822
:10006000E93E0008EF3E0008F53E00082968000858
:10007000296800082968000829680008296800081C
:10008000296800082968000829680008296800080C
:10009000054700082968000829680008FB3E000899
:1000A00029680008296800082968000829680008EC
:1000B00029680008296800082968000829680008DC
:1000C00029680008296800082968000829680008CC
:1000D00029680008114700082968000829680008F5
:1000E000FD3E0008F94300082968000800000000F0
:1000F0000000000000000000000000000000000000
:0C01000000000000000000005FF808F1A3
:1001100010B5054C237833B9044B13B10448AFF341
:1001200000800123237010BD840000200000000027
:10013000D47300080C4B43B10C4810B50C49AFF315
:1001400000800C48036823B910BD0A48036833B91E
:100150007047094B002BF7D0BDE810401847064BFD
:10016000002BF5D0184700BF00000000D473000832
:1001700088000020840000200000000081F0004181
:1001800002E000BF83F0004330B54FEA41044FEA7C
:10019000430594EA050F08BF90EA020F1FBF54EA17
:1001A000000C55EA020C7FEA645C7FEA655C00F0B3
:1001B000E2804FEA5454D4EB5555B8BF6D420CDD84
:1001C0002C4480EA020281EA030382EA000083EA07
:1001D000010180EA020281EA0303362D88BF30BDA7
:1001E00011F0004F4FEA01314FF4801C4CEA1131FD
:1001F00002D0404261EB410113F0004F4FEA03335C
:100200004CEA133302D0524263EB430394EA050FE6
:1002100000F0A780A4F10104D5F1200E0DDB02FA55
:100220000EFC22FA05F2801841F1000103FA0EF2E9
:10023000801843FA05F359410EE0A5F120050EF1AF
:10024000200E012A03FA0EFC28BF4CF0020C43FAE0
:1002500005F3C01851EBE37101F0004507D54FF0ED
:10026000000EDCF1000C7EEB00006EEB0101B1F53D
:10027000801F1BD3B1F5001F0CD349085FEA300083
:100280004FEA3C0C04F101044FEA445212F5800F8E
:1002900080F09A80BCF1004F08BF5FEA500C50F12B
:1002A000000041EB045141EA050130BD5FEA4C0C0E
:1002B000404141EB010111F4801FA4F10104E9D197
:1002C00091F0000F04BF01460020B1FA81F308BF8E
:1002D0002033A3F10B03B3F120020CDA0C3208DD5A
:1002E00002F1140CC2F10C0201FA0CF021FA02F135
:1002F0000CE002F11402D8BFC2F1200C01FA02F1A5
:1003000020FA0CFCDCBF41EA0C019040E41AA2BFC9
:1003100001EB0451294330BD6FEA04041F3C1CDA91
:100320000C340EDC04F11404C4F1200220FA04F0B1
:1003300001FA02F340EA030021FA04F345EA03015B
:1003400030BDC4F10C04C4F1200220FA02F001FA1D
:1003500004F340EA0300294630BD21FA04F029469F
:1003600030BD94F0000F83F4801306BF81F4801138
:100370000134013D4EE77FEA645C18BF7FEA655CAB
:1003800029D094EA050F08BF90EA020F05D054EA7D
:10039000000C04BF1946104630BD91EA030F1EBF82
:1003A0000021002030BD5FEA545C05D14000494186
:1003B00028BF41F0004130BD14F580043CBF01F579
:1003C000801130BD01F0004545F0FE4141F470015F
:1003D0004FF0000030BD7FEA645C1ABF194610463A
:1003E0007FEA655C1CBF0B46024650EA013406BF3B
:1003F00052EA033591EA030F41F4002130BD00BFFA
:1004000090F0000F04BF0021704730B54FF48064B6
:1004100004F132044FF000054FF0000150E700BF37
:1004200090F0000F04BF0021704730B54FF4806496
:1004300004F1320410F0004548BF40424FF0000183
:100440003EE700BF42004FEAE2014FEA31014FEAC6
:1004500002701FBF12F07F4393F07F4F81F0605115
:10046000704792F0000F14BF93F07F4F704730B584
:100470004FF4607401F0004521F0004120E700BF17
:1004800050EA010208BF704730B54FF000050AE09E
:1004900050EA010208BF704730B511F0004502D59F
:1004A000404261EB41014FF4806404F132045FEAA1
:1004B000915C3FF4DCAE4FF003025FEADC0C18BF46
:1004C00003325FEADC0C18BF033202EBDC02C2F13C
:1004D000200300FA03FC20FA02F001FA03FE40EACE
:1004E0000E0021FA02F11444C1E600BF70B54FF0CE
:1004F000FF0C4CF4E06C1CEA11541DBF1CEA1355B0
:1005000094EA0C0F95EA0C0F00F0DEF82C4481EA17
:10051000030621EA4C5123EA4C5350EA013518BF37
:1005200052EA033541F4801143F4801338D0A0FB24
:1005300002CE4FF00005E1FB02E506F00042E0FBD1
:1005400003E54FF00006E1FB03569CF0000F18BFD7
:100550004EF0010EA4F1FF04B6F5007F64F540747F
:1005600004D25FEA4E0E6D4146EB060642EAC62112
:1005700041EA55514FEAC52040EA5E504FEACE2E7F
:10058000B4F1FD0C88BFBCF5E06F1ED8BEF1004F82
:1005900008BF5FEA500E50F1000041EB045170BDFE
:1005A00006F0004646EA010140EA020081EA030142
:1005B000B4EB5C04C2BFD4EB0C0541EA045170BD3E
:1005C00041F480114FF0000E013C00F3AB8014F1B8
:1005D000360FDEBF002001F0004170BDC4F1000401
:1005E000203C35DA0C341BDC04F11404C4F1200582
:1005F00000FA05F320FA04F001FA05F240EA0200DD
:1006000001F0004221F0004110EBD37021FA04F612
:1006100042EB06015EEA430E08BF20EAD37070BDCC
:10062000C4F10C04C4F1200500FA04F320FA05F02B
:1006300001FA04F240EA020001F0004110EBD3702D
:1006400041F100015EEA430E08BF20EAD37070BD9D
:10065000C4F1200500FA05F24EEA020E20FA04F376
:1006600001FA05F243EA020321FA04F001F0004125
:1006700021FA04F220EA020000EBD3705EEA430E96
:1006800008BF20EAD37070BD94F0000F0FD101F0C5
:100690000046400041EB010111F4801F08BF013CFE
:1006A000F7D041EA060195F0000F18BF704703F03C
:1006B0000046520043EB030313F4801F08BF013DC3
:1006C000F7D043EA0603704794EA0C0F0CEA13557F
:1006D00018BF95EA0C0F0CD050EA410618BF52EA39
:1006E0004306D1D181EA030101F000414FF000003F
:1006F00070BD50EA410606BF1046194652EA43064D
:1007000019D094EA0C0F02D150EA013613D195EAC0
:100710000C0F05D152EA03361CBF104619460AD108
:1007200081EA030101F0004141F0FE4141F4700112
:100730004FF0000070BD41F0FE4141F4780170BD02
:1007400070B54FF0FF0C4CF4E06C1CEA11541DBF67
:100750001CEA135594EA0C0F95EA0C0F00F0A7F869
:10076000A4EB050481EA030E52EA03354FEA013196
:1007700000F088804FEA03334FF0805545EA1313A9
:1007800043EA12634FEA022245EA111545EA106571
:100790004FEA00260EF000419D4208BF964244F108
:1007A000FD0404F5407402D25B084FEA3202B61A27
:1007B00065EB03055B084FEA32024FF480104FF4FB
:1007C000002CB6EB020E75EB030E22BFB61A75466F
:1007D00040EA0C005B084FEA3202B6EB020E75EB02
:1007E000030E22BFB61A754640EA5C005B084FEA6A
:1007F0003202B6EB020E75EB030E22BFB61A754637
:1008000040EA9C005B084FEA3202B6EB020E75EB41
:10081000030E22BFB61A754640EADC0055EA060E02
:1008200018D04FEA051545EA16754FEA06164FEA45
:10083000C30343EA52734FEAC2025FEA1C1CC0D1F1
:1008400011F4801F0BD141EA00014FF000004FF07E
:10085000004CB6E711F4801F04BF01430020B4F13F
:10086000FD0C88BFBCF5E06F3FF6AFAEB5EB030CF7
:1008700004BFB6EB020C5FEA500C50F1000041EBF4
:10088000045170BD0EF0004E4EEA113114EB5C04C1
:10089000C2BFD4EB0C0541EA045170BD41F4801194
:1008A0004FF0000E013C90E645EA060E8DE60CEA9C
:1008B000135594EA0C0F08BF95EA0C0F3FF43BAFB9
:1008C00094EA0C0F0AD150EA01347FF434AF95EA70
:1008D0000C0F7FF425AF104619462CE795EA0C0F54
:1008E00006D152EA03353FF4FDAE1046194622E721
:1008F00050EA410618BF52EA43067FF4C5AE50EAFB
:1009000041047FF40DAF52EA43057FF4EBAE12E7EA
:100910004FF0FF3C06E000BF4FF0010C02E000BFCB
:100920004FF0010C4DF804CD4FEA410C7FEA6C5CAE
:100930004FEA430C18BF7FEA6C5C1BD001B050EA51
:10094000410C0CBF52EA430C91EA030F02BF90EA3C
:10095000020F0020704710F1000F91EA030F58BFFB
:10096000994208BF90422CBFD8176FEAE37040F05D
:10097000010070474FEA410C7FEA6C5C02D150EAFB
:10098000013C07D14FEA430C7FEA6C5CD6D152EAB6
:10099000033CD3D05DF8040B704700BF844610467B
:1009A00062468C461946634600E000BF01B5FFF77A
:1009B000B7FF002848BF10F1000F01BD4DF808ED4A
:1009C000FFF7F4FF0CBF012000205DF808FB00BF1B
:1009D0004DF808EDFFF7EAFF34BF012000205DF875
:1009E00008FB00BF4DF808EDFFF7E0FF94BF0120C2
:1009F00000205DF808FB00BF4DF808EDFFF7CEFFC3
:100A000094BF012000205DF808FB00BF4DF808ED01
:100A1000FFF7C4FF34BF012000205DF808FB00BFD2
:100A20004FEA410212F5001215D211D56FF4787316
:100A3000B3EB625212D94FEAC12343F0004343EAB9
:100A4000505311F0004F23FA02F018BF4042704794
:100A50004FF00000704750EA013005D111F000401E
:100A600008BF6FF0004070474FF00000704700BFB4
:100A70004A0011D212F5001211D20DD56FF478731D
:100A8000B3EB62520ED44FEAC12343F0004343EA72
:100A9000505323FA02F070474FF00000704750EABD
:100AA000013002D14FF0FF3070474FF00000704727
:100AB000034613F8012B002AFBD1181A013870479E
:100AC00010B5044601F02EF84FF47A73B0FBF3F042
:100AD00000F088F8002221464FF0FF3000F042F885
:100AE000002010BD074A08B51368032043F0100327
:100AF000136000F025F80020FFF7E2FF03F0A6FDE9
:100B0000002008BD00200240024A13680133136030
:100B1000704700BFA0000020014B1868704700BF5D
:100B2000A000002013B50190FFF7F6FF0446FFF781
:100B3000F3FF019B001B9842F9D302B010BD0000E7
:100B4000074A0002D36800F4E06023F4E0631B046A
:100B50001B0C43F0BF6343F400330343D36070477F
:100B600000ED00E0174B30B5DC68C4F30224C4F19B
:100B70000703251D042B28BF0423062D4FF0010574
:100B800098BF002405FA03F303F1FF3388BF033C49
:100B90001940A14005FA04F4013C2240002842EA31
:100BA00001024FEA0212AFBF00F16040064B00F0B5
:100BB0000F00D2B2A5BFD2B200F561401A5480F83E
:100BC000002330BD00ED00E014ED00E001234209F8
:100BD00000F01F0003FA00F0014B43F822007047B9
:100BE00000E100E00138B0F1807F0AD2F021064B2D
:100BF000064A586082F823100020072298601A6085
:100C000070470120704700BF10E000E000ED00E0F9
:100C1000044B04281A680CBF42F0040222F00402BC
:100C20001A60704710E000E008B503F0A3FF08BDAC
:100C30002DE9F74F00221646654BDFF8A4E1DFF8F7
:100C4000A4C14FF001080C6808FA06F808EA040489
:100C5000A0457FD14D68122D00F0AF8000F2888052
:100C6000022D00F0A7807CD8002D00F08E80012D91
:100C700000F09E804FF00F09FF2C93BF824606F1D3
:100C80008045083DD0F800B092BFB500D0F804B060
:100C9000AD0009FA05F82BEA080802FA05F588BF45
:100CA00000F1040A48EA0505CAF80050D1F804A08A
:100CB0001AF0805F4ED0474D464FAD6926F00308CD
:100CC00045F00105BD61BD6908F1804805F00105E9
:100CD000019508F5803806F0030B019D4FEA8B0B58
:100CE000D8F8085009FA0BF925EA09093A4DA84243
:100CF00068D005F58065A84266D005F58065A842F4
:100D000064D005F58065A8420CBF0325042505FACB
:100D10000BF545EA0905C8F808501D681AF4803F2C
:100D200014BF2543A5431D605D681AF4003F14BF3E
:100D30002543A5435D609D681AF4801F14BF2543B9
:100D4000A5439D60DD681AF4001F14BF2C4325EAFB
:100D50000404DC600136102E7FF473AF03B0BDE8ED
:100D6000F08F032D22D0112D84D1CA68043281E77F
:100D70001A4FBD4209D012D8DFF86C904D4504D00F
:100D800009F580394D457FF475AF8A68C2B1012AF3
:100D90000CBFC0F81080C0F8148008226AE77545BF
:100DA000F3D06545F1D0DFF84490EBE7002261E72E
:100DB000CA685FE7CA6808325CE7CA680C3259E75C
:100DC000042257E70025A2E70125A0E702259EE7B8
:100DD0000004014000100240000801400000211002
:100DE000000031100000321000001110000022102D
:100DF0000AB1016170470904FBE7C3685940C1604B
:100E00007047000008B5044B5969014202D058618F
:100E100003F076F808BD00BF0004014090F8E82315
:100E200010B5012A04460BD0012280F8E82384F88B
:100E30002410006801F022FF002084F8E80310BDB0
:100E4000022010BD38B5044648B2002801F07F05E5
:100E5000B5BF04EB451104EB4111283101F50271D6
:100E6000C00F0D704870CB7094F8E8330A61012B05
:100E700009D00123206884F8E83301F017FD002031
:100E800084F8E80338BD022038BD70B5044601F08F
:100E90007F0670012518C5F820320023C5F82432DA
:100EA00085F8093294F8E833C5F81C22012B85F83F
:100EB00008620CD0012300F50270211884F8E83391
:100EC000206801F0F9FE002084F8E80370BD0220DC
:100ED00070BD70B5044601F07F06700125182B64C3
:100EE00000236B640123EA6394F8E82385F8293032
:100EF0009A4285F828600AD02830211884F8E8330F
:100F0000206801F0D9FE002084F8E80370BD0220BB
:100F100070BD00002DE9F3470446006801F0B4FEFF
:100F2000000400F19480206801F0AEFE41050FD569
:100F300022682046B2F8443023F480631B041B0C63
:100F4000A2F8443003F06FFD00212046FFF766FF52
:100F5000206801F099FE470408D52268B2F84430B1
:100F600023F480431B041B0CA2F84430206801F0DA
:100F70008BFE860408D52268B2F8443023F400536F
:100F80001B041B0CA2F84430206801F07DFEC50450
:100F900018D522682046B2F8403023F004031B0421
:100FA0001B0CA2F840304FF43D43A2F8403003F050
:100FB00057FD2268B2F8443023F480531B041B0C05
:100FC000A2F84430206801F05FFE00051DD52068BE
:100FD000B0F8443023F400631B041B0CA0F8443029
:100FE000B0F840309BB243F00803A0F84030B0F8AE
:100FF00040309BB243F00403A0F8403001F044FEBF
:10100000C10402D4204603F01BFD206801F03CFE21
:1010100082050BD522682046B2F8443023F40073D1
:101020001B041B0CA2F8443003F0F9FC206801F00B
:101030002BFEC30508D52268B2F8443023F4807330
:101040001B041B0CA2F8443002B0BDE8F08700235B
:10105000C34FDFF81083DFF81093ADF80430ADF81C
:1010600006302068B0F844309BB2ADF804301B0461
:101070007FF559AFBDF8045015F00F0540F0AB8077
:10108000BDF80410038811F010019BB226D13B403B
:101090000380B0F8503094F828209BB203EBC203D1
:1010A00000EB4300D0F80434E26BC3F3090363643C
:1010B0001344E363204603F0ABFC94F82430002B88
:1010C000CFD0226C002ACCD194F82430216843F090
:1010D0008003A1F84C3084F82420C2E7ADF8063034
:1010E000BDF806301A051FD5B0F8503094F8082224
:1010F0009BB203EBC20300EB4303D3F80C34B4F808
:101100000C22C3F30903C4F8243204F57B7101F007
:10111000A7FE22682046138823F070031B051B0DD1
:10112000138003F067FC9CE7BDF806301B0498D5DC
:10113000038823F070031B051B0D0380B0F85030AB
:1011400094F808229BB203EBC20300EB4303D3F8ED
:101150000C34C3F30903C4F8243263B1B4F80C228D
:10116000D4F81C1201F07CFED4F81C32D4F82422EE
:101170001344C4F81C320021204603F041FC2268CD
:10118000D4F81852B2F850103E2D89B201F1060180
:1011900002F5806017D9C5F34F13EE0604BF03F1C3
:1011A000FF339BB249EA83239BB240F81130138886
:1011B0009BB203EA080383F4405343F4004343F033
:1011C000800313804DE7C5F34F03ED0744BF0133A0
:1011D0009BB29B02E8E730F825309BB2ADF80630B1
:1011E000BDF8063019043DD530F825304FEA451AD0
:1011F00023F070031B051B0D20F8253004EB0A01BA
:1012000091F81232002B6FD1B0F8503091F80822CB
:101210009BB203EBC20300EB4303D3F80C64C6F3A9
:10122000090636B1B1F80C223346D1F81C1201F090
:1012300017FE04EB0A01D1F82432D1F81C22334402
:10124000C1F82432D1F820323244C1F81C221BB13B
:10125000D1F8180286427DD2A2449AF8081220469C
:1012600003F0CEFBBDF806301A067FF5FAAE206813
:101270006E0130F82530A1199BB23B4020F8253093
:1012800091F832300235002B70D1B0F8503091F81F
:1012900028209BB203EBC20300EB4303D3F80434D2
:1012A00004EB4515C3F309036B601BB18A8DC96B51
:1012B00001F0F0FC22682644B2F8503096F828106D
:1012C0009BB203EBC10302EB4303D3F80424F36B9B
:1012D000C2F3090272641A44336CF2632046002B95
:1012E0007AD103F095FBBCE691F8083230F8232060
:1012F000DB0012F4804FB0F8502092B2134400EBA0
:1013000043031DD0D3F80464C6F3090636B133464F
:10131000B1F80E22D1F81C1201F0A2FD04EB0A0371
:1013200093F80812226832F8213023F0F0031B05ED
:101330001B0D43F4004343F0C00322F8213078E74B
:10134000D3F80C64C6F30906002EE7D03346B1F893
:101350001022DFE791F808122046FFF796FD81E79B
:101360000F8FFFFF8FBFFFFF0080FFFF91F8283036
:1013700030F82320DB0012F0400FB0F8502092B27A
:10138000134400EB43031CD0D3F8043404EB45159D
:10139000C3F309036B601BB1CA8DC96B01F07AFC02
:1013A000A31993F82810226832F8213023F0F003B3
:1013B0001B051B0D43F4404343F0800322F821300A
:1013C00078E7D3F80C3404EB4515C3F309036B60DD
:1013D000002BE5D00A8EE0E7FFF77BFD41E600BF7A
:1013E000012238B54BB2002B01F07F05B5BF00EBF1
:1013F000451100EB4111283101F50271DB0FEDB20F
:101400008A700D704B7090F8E833044693420ED00A
:1014100080F8E823006801F0BDFB25B904F57B7175
:10142000206801F035FC002084F8E80338BD022074
:1014300038BD38B500244BB2002B01F07F02B5BF98
:1014400000EB421100EB4111283101F50271DB0F75
:101450008C700A704B7090F8E8330546012B09D068
:10146000012380F8E833006801F0C6FB85F8E84303
:10147000204638BD022038BD03682DE9F743DE075A
:10148000054634D42B689C0700F1A7802B681A0707
:1014900023D5AA69BE4C0123BE49002A00F015815C
:1014A00093FAA3F2B2FA82F241F82230FFF734FB4A
:1014B0000226074696FAA6F396FAA6F3626A96FA09
:1014C000A6F3B3FA83F303F01F0322FA03F3DB0757
:1014D00040F1F4800120FFF725FB2B68590700F14C
:1014E0001481EA69002A40F09381002020E0A84C92
:1014F000636803F00C03042B07D0636803F00C034C
:10150000082B18D16368D80315D54FF4003393FA2C
:10151000A3F2226893FAA3F3B3FA83F303F01F0351
:1015200022FA03F3D907ADD56B68002BAAD10120AD
:1015300003B0BDE8F0836B68B3F5803F1CD123682E
:1015400043F480332360FFF7E7FA4FF40036074691
:1015500096FAA6F3226896FAA6F3B3FA83F303F099
:101560001F0322FA03F3DA078CD4FFF7D5FAC01B66
:101570006428EDD90320DBE703BB23684FF4003672
:1015800023F480332360236823F480232360FFF750
:10159000C3FA074696FAA6F3226896FAA6F3B3FAB8
:1015A00083F303F01F0322FA03F3DB077FF56AAF2F
:1015B000FFF7B2FAC01B6428ECD9DBE7B3F5A02F24
:1015C000236803D143F480232360B8E723F48033F6
:1015D0002360236823F48023B4E76D4C636813F021
:1015E0000C0F07D0636803F00C03082B20D163684D
:1015F000DF031DD4022393FAA3F2226893FAA3F324
:10160000B3FA83F303F01F0322FA03F3DE0702D5D4
:101610002B69012B8BD12168F82393FAA3F3B3FA3A
:1016200083F26B69934021F0F802134323602DE7A6
:101630002A69012302B393FAA3F2B2FA82F292006A
:1016400002F1844202F584021360FFF765FA022674
:10165000074696FAA6F3226896FAA6F3B3FA83F33E
:1016600003F01F0322FA03F3D807D4D4FFF754FA88
:10167000C01B0228EDD97DE793FAA3F3B3FA83F3F5
:101680009B0003F1844303F584031A60FFF744FAD7
:101690000226074696FAA6F3226896FAA6F3B3FA4C
:1016A00083F303F01F0322FA03F3D9077FF5EEAEAD
:1016B000FFF732FAC01B0228ECD95BE7FFF72CFAE0
:1016C000C01B02287FF6F6AE54E793FAA3F3B3FAF1
:1016D00083F341F82320FFF71FFA0226074696FA04
:1016E000A6F396FAA6F3626A96FAA6F3B3FA83F320
:1016F00003F01F0322FA03F3D8077FF5EEAEFFF7DE
:101700000BFAC01B0228EAD934E7214C224EE369C8
:1017100043F08053E361E36903F080530193019B3D
:10172000336843F480733360FFF7F6F90746336894
:10173000DA0526D5EB68012B30D1236A43F001038B
:101740002362FFF7E9F902268146B04641F2883765
:1017500096FAA6F396FAA6F3002B55D0226A98FAC9
:10176000A8F3B3FA83F303F01F0322FA03F3DB07B2
:101770003FF5B7AEFFF7D0F9A0EB0900B842E7D9C3
:10178000F8E6FFF7C9F9C01B6428D0D9F2E600BF1C
:1017900000100240800442420070004033BB236AC4
:1017A000022623F001032362236A374623F0040351
:1017B0002362FFF7B1F941F28839804696FAA6F321
:1017C00096FAA6F313B3226A97FAA7F3B3FA83F350
:1017D00003F01F0322FA03F3D8077FF582AEFFF769
:1017E0009BF9A0EB08004845E8D9C3E6052B236A1E
:1017F00003D143F0040323629FE723F00103236234
:10180000236A23F004039BE7626AA8E7626ADBE7C6
:10181000444C636803F00C03082B3FF488AE022AA3
:101820004FF0807359D193FAA3F3B3FA83F30022F4
:101830009B0003F1844303F584031A60FFF76CF9FE
:101840004FF00076074696FAA6F3226896FAA6F3BA
:10185000B3FA83F303F01F0322FA03F3D90736D454
:101860002B6AB3F5803F05D16268A96822F4003283
:101870000A4362606268696A22F474120B4313437C
:1018800063604FF0807393FAA3F3B3FA83F30122FA
:101890009B0003F1844303F584031A60FFF73CF9CE
:1018A0004FF00075064695FAA5F3226895FAA5F360
:1018B000B3FA83F303F01F0322FA03F3DA073FF5C9
:1018C00014AEFFF729F9801B0228ECD952E6FFF786
:1018D00023F9C01B0228B6D94CE693FAA3F3B3FA56
:1018E00083F300229B0003F1844303F584031A6011
:1018F000FFF712F94FF00075064695FAA5F3226836
:1019000095FAA5F3B3FA83F303F01F0322FA03F366
:10191000DB077FF5EAADFFF7FFF8801B0228ECD963
:1019200028E600BF0010024030B5204B87B002AC63
:1019300003F11005224618685968083303C2AB4208
:101940001446F7D101238DF804300223184C8DF88A
:101950000530616801F00C03082B24D14FF470139B
:1019600093FAA3F3B3FA83F201F47013D34006AAF7
:10197000134413F8100CCB0313D563684FF40032F3
:1019800092FAA2F2B2FA82F203F40033D34006AA2A
:10199000134413F8142C074BB3FBF2F3584307B06E
:1019A00030BD054BFAE70348F9E700BFF0730008C4
:1019B0000010024000127A0000093D00554A2DE94E
:1019C000F0411368064603F007038B420D4630D3FF
:1019D000326894073AD4D00740D44E4A136803F0D3
:1019E00007039D42C0F0848032684B4C12F0040F14
:1019F00040F08980130706D56368326923F4605389
:101A000043EAC2036360FFF78FFF6368F02292FA34
:101A1000A2F2B2FA82F203F0F003D3403F4AD35C61
:101A2000D8403F4B18600020FFF74AF80020BDE87F
:101A3000F081136823F007030B431360136803F06E
:101A400007039942C4D00120BDE8F0813249B06853
:101A50004B6823F0F00303434B60BCE772682E4CE5
:101A6000012A28D14FF4003393FAA3F1216893FAA5
:101A7000A3F3B3FA83F303F01F0321FA03F3D907A7
:101A8000E1D5636841F2883823F003031A436260AA
:101A9000FFF742F873680746012B12D1636803F021
:101AA0000C03042B99D0FFF737F8C01B4045F5D93C
:101AB0000320BDE8F081022A0CBF4FF0007302231F
:101AC000D2E7022B0FD1636803F00C03082B84D0FC
:101AD000FFF722F8C01B4045F5D9E9E7FFF71CF8EE
:101AE000C01B4045E4D8636813F00C0FF6D174E7CF
:101AF000136823F007032B431360136803F00703F5
:101B00009D42A0D170E76368F16823F4E0630B4362
:101B100063606FE700200240001002403B74000841
:101B200004000020014B1868704700BF040000202B
:101B3000084B4FF4E0625B6892FAA2F2B2FA82F2CA
:101B400003F4E063D340044AD35C044A1068D840ED
:101B5000704700BF001002404B74000804000020D2
:101B6000084B4FF460525B6892FAA2F2B2FA82F22A
:101B700003F46053D340044AD35C044A1068D8404D
:101B8000704700BF001002404B74000804000020A2
:101B900003682DE9F743DC0705461ED53C4C3D4E56
:101BA000E36943F08053E361E36903F080530193F9
:101BB000019B336843F480733360FEF7ADFF074643
:101BC0003368D8051FD5236A13F4407324D1236AE0
:101BD0006A6823F44073134323622868830706D599
:101BE0002B4AA968536823F440430B43536010F019
:101BF00010000ED0264AE9685368002023F48003C1
:101C00000B43536005E0FEF787FFC01B6428D7D95C
:101C1000032003B0BDE8F0836A6802F44072934287
:101C2000D5D0216A4FF4803321F4407693FAA3F2A1
:101C30000127B2FA82F2184840F8227093FAA3F30F
:101C40000022B3FA83F3C90740F823202662BED5E9
:101C5000FEF762FF02268046374641F2883996FA3F
:101C6000A6F396FAA6F38BB1226A97FAA7F3B3FA12
:101C700083F303F01F0322FA03F3DA07A7D4FEF776
:101C80004BFFA0EB08004845E9D9C1E7626AECE7E1
:101C900000100240007000400004424270B504464B
:101CA0003E4B86B002AD03F110062A46186859680B
:101CB000083303C2B3421546F7D101238DF804302F
:101CC00002239C428DF8053053D0102C17D0012CE4
:101CD00062D140F20231324A136A1940B1F5817F74
:101CE00057D003F44073B3F5007F39D149F6404033
:101CF000536A13F0020F08BF002006B070BD284AD7
:101D00005468106810F08070F7D04FF4701393FA95
:101D1000A3F3B3FA83F104F47013CB4006A90B4488
:101D2000E10313F8100C19D553684FF4003191FA00
:101D3000A1F1B1FA81F103F40033CB4006A90B44C1
:101D400013F8141C174BB3FBF1F3584353685B02B1
:101D5000D3D403234000B0FBF3F0CEE7124BF4E7FB
:101D6000B3F5407F18D113684FF2244013F4003FBD
:101D7000C1E7FFF7F5FE0A4B4FF480425B6892FA29
:101D8000A2F2B2FA82F203F44043D34001335B0083
:101D9000E1E74FF40040B0E70020AEE70074000830
:101DA0000010024000127A0000093D00036830B5BF
:101DB0009A69D869996995B28CB2A5421DBFD86954
:101DC00080B240EA014080B208BF40EA024030BD24
:101DD0000368186A5B6A9BB243EA004070470023BD
:101DE000092803D840EA0310C0B270470A3801330B
:101DF000C0B2F5E70A22030900F00F0002FB03005E
:101E0000C0B2704710B54FF4C874022994BF00F2F5
:101E1000CF7300F5FA63B3FBF4F494BF00F2D4700F
:101E200000F2D27000EB930020446424B3FBF4F37F
:101E3000C01A17235943092391FBF3F10A441044B4
:101E40000722B0FBF2F2C2EBC202801AC0B210BD90
:101E500038B50446FEF760FE054623685A689206C8
:101E600005D55A68002042F010025A6038BDFEF7CE
:101E700053FE401BB0F57A7FEFD9032038BD0268CE
:101E800038B55368044623F010035360FEF744FE50
:101E9000054623685B689B0601D5002038BDFEF728
:101EA0003BFE401BB0F57A7FF3D9032038BD38B52F
:101EB00005460C46FFF7CCFF58B92B68220CA4B29C
:101EC0009A612846DC61FFF7DAFF003018BF012075
:101ED00038BD012038BD38B505460C46FFF7B8FFC0
:101EE00058B92B68220CA4B21A6228465C62FFF72C
:101EF000C6FF003018BF012038BD012038BD704733
:101F000070B50446E0B1D9B1037C0226012B46D05E
:101F100001234674037408784E78897892B93C2579
:101F20004FF46163754303FB005045182946204672
:101F3000FFF7BDFF0646B0B104236374002323748A
:101F400001262CE0FFF756FF05463046FFF752FF0B
:101F50003C2358434FF4616303FB05050846FFF734
:101F600049FF0544E2E722682046536823F0050351
:101F70005360FFF72DFF431C0DD085420BD900F5B0
:101F8000A83101F5C0712046FFF7A5FF18B1042361
:101F900026746374D4E701236374002323743046EA
:101FA00070BD00002DE9F8430D469046044610B977
:101FB0000120BDE8F8830029FAD003685B685E075A
:101FC000F6D4FFF7F3FE4FF46162B0FBF2F307467D
:101FD00002FB13023C20B2FBF0F100FB1122172B95
:101FE0006970AA7040F285801821B3FBF1F201FB01
:101FF000123320462B70FFF7EBFE411C3FD0874287
:102000003DD2C61B414B2046B7FBF3F903FB1979C0
:102010004946FFF74CFF0028CAD1721C32D009EBA9
:1020200006012046FFF757FF0028C1D1374B002695
:10203000B7FBF3F74FF0640E4FF4C87C40F2D5299C
:10204000E07B617BA27BB7421ED1C9B2D2B2E07302
:102050006173A273FFF7D6FE2073B8F1000F0BD0A7
:102060002878FFF7BCFE28706878FFF7B8FE687024
:10207000A878FFF7B4FEA8700020BDE8F8834FF001
:10208000FF36BFE73146CCE74B1E092B35D829FA7E
:1020900003F3DB072FD421F00203042B01D0092B1B
:1020A00004D11D2A06D9013101222DE002292BD1AC
:1020B0001B2A01D8013227E01C2A13D182B29307D0
:1020C00012D1B2FBFEF30EFB13239BB27BB9B2FB22
:1020D000FCF30CFB13239BB2002B16BF01221D2225
:1020E000032111E01D2A0FD1012203210CE01D2242
:1020F0000AE02B70B1E71E2AD4E70C29CBD11E2AA7
:10210000D8D901221146013001369CE780510100E7
:1021100070B50D46044658B351B3037C0220012B21
:1021200027D0012360742374C8781ABBE0734B78FE
:1021300063738B78A373A27B617BE07BFFF762FE06
:10214000207328702046FFF731FE1C4B984230D98F
:10215000A3F60F63B0FBF3F503FB150520462946F4
:10216000FFF7A5FE064688B1042363740023237499
:10217000012070BDFFF73EFEE0734878FFF73AFE9E
:1021800060738878FFF736FEA073D4E72046FFF728
:102190001FFE431C0DD085420BD900F5A83101F577
:1021A000C0712046FFF797FE18B1042326746374AC
:1021B000DEE7012300206374207470BD8F5F01008F
:1021C000F7B5174600220C46ADF804208DF806201E
:1021D000054618B90122104603B0F0BD0029F9D018
:1021E00001A9FFF7DFFE02460028F3D12B7B237005
:1021F000E87BE0706E7B6670A97BA170002FEAD04F
:10220000FFF7EDFDE0703046FFF7E9FD607008462E
:10221000FFF7E5FDA070DEE72DE9F34792460022C7
:102220008846ADF804208DF80620044618B9012030
:1022300002B0BDE8F0870029F9D0037C012B4FF0F4
:10224000020354D001214374017401A9FFF7AAFECF
:102250000028ECD13C264FF461699DF805309DF8CB
:102260000450734309FB05359DF8063098F80000CB
:1022700098F801701D4498F80280BAF1000F13D14C
:102280007E4309FB006000EB0801A9423CBF01F559
:10229000A83101F5C0712046FFF71DFE90B104235F
:1022A000637400232374C2E7FFF7A4FD0146384698
:1022B000FFF7A0FD704309FB01014046FFF79AFDBF
:1022C0000144E2E76FF0020223685A601A6842F0A4
:1022D00002021A60074B1A6842F400321A609A68C8
:1022E00042F400329A60012320746374A0E7184618
:1022F0009EE700BF0004014070B51A4638B331B301
:10230000FFF766FD4FF461651826B0FBF5F4B4FBEA
:10231000F6F306FB13433C2605FB1400B0FBF6F472
:10232000E5B206FB1404DBB2E4B20B704D708C70A6
:102330005AB11846FFF753FD08702846FFF74FFDC6
:1023400048702046FFF74BFD8870002070BD0120CB
:1023500070BD70B50446A0B1037C012B4FF00203A1
:102360002CD00125026843741368057423F002031E
:102370001360FFF76DFD064628B104236374002344
:102380002374012070BD6FF00202236820465A605A
:102390004FF6FF721A625A6202F1804202F2014263
:1023A000136823F400331360FFF769FD18B10423A9
:1023B00026746374E5E76574207470BD184670BDBB
:1023C00070470000036810B51A680446920708D5E4
:1023D0005B689B0705D5FFF7F3FF6FF002022368E8
:1023E0005A604FF40032024B5A610123637410BDEE
:1023F0000004014038B50446A8B10268536823F0D0
:1024000008035360FEF788FB054623685B681B07DB
:1024100001D5002038BDFEF77FFB401BB0F57A7F69
:10242000F3D9032038BD012038BD000010B50446A3
:1024300070B1437C03F0FF0213B90274FFF75FFD34
:10244000022320466374FFF7D5FF18B10423637499
:10245000012010BD2046FFF7FBFC0028F6D12268C2
:10246000A068536823F007035360174A18B1116B33
:1024700021F001011163D36A23F460730343D36233
:102480006068431C05D10120FFF708FC0028DDD05F
:1024900001382268936823F00F0343EA10439360E6
:1024A000D36880B21B0C1B041843D0602046FFF792
:1024B000E6FC012310B104226274C9E7E073637380
:1024C000A373637410BD00BF006C00407047704779
:1024D000036810B51A680446D10711D55A68D207A7
:1024E0000ED55B685B070CD5FFF7F1FF6FF00402B8
:1024F00023685A6004236FF00102637423685A60F2
:1025000010BDFFF7E3FF0123F5E7000010B5044617
:10251000002834D090F851300BB901F0BBFF0223F2
:10252000216884F851300B68A06823F040030B60E9
:102530006368A2690343E068034320690343606959
:102540000343E0690343206A0343A06A034302F4A0
:102550000070034300200B60120C636A02F0040257
:102560001A43E36A4A600B61CB6923F40063CB61D1
:10257000044B60651870012384F8513010BD0120B0
:1025800010BD00BFA40000202DE9F0470568C26817
:102590002B69016923F4405313432B618368EA6874
:1025A0000B43416922F4B05222F00C020B43134357
:1025B000EB606B69826923F4407313436B61404B9A
:1025C00081469D424FF0190446D1FFF7C9FA04FB3A
:1025D00000F3D9F804604FF06408B600B3FBF6F3DB
:1025E000B3FBF8F31E01FFF7BBFA6043D9F80430E0
:1025F0009B00B0FBF3F7FFF7B3FA6043D9F8043060
:102600009B00B0FBF3F3B3FBF8F308FB13731B0160
:102610003233B3FBF8F303F0F007FFF7A1FA60439E
:10262000D9F804209200B0FBF2FAFFF799FA604360
:10263000D9F804309B00B0FBF3F3B3FBF8F308FBCD
:1026400013A31B013233B3FBF8F303F00F033B4337
:102650003344AB60BDE8F087FFF76AFA04FB00F390
:10266000D9F804604FF06408B600B3FBF6F3B3FB8F
:10267000F8F31E01FFF75CFA6043D9F804309B00C1
:10268000B0FBF3F7FFF754FA6043D9F804309B002E
:10269000B0FBF3F3B3FBF8F308FB13731B01323306
:1026A000B3FBF8F303F0F007FFF742FA6043D9F801
:1026B00004209200B0FBF2FAFFF73AFAB7E700BF46
:1026C0000038014010B5044630B390F8393003F0BB
:1026D000FF021BB980F8382004F048F80223226872
:1026E00084F83930D368204623F40053D360FFF7D1
:1026F0004BFF236800201A6922F490421A615A693C
:1027000022F02A025A61DA6842F40052DA600123A8
:10271000E06384F8393010BD012010BD7047704768
:102720007047026813B511680446C907D36805D518
:10273000DB0542BFC36B43F00103C36311685369F8
:10274000880703F0010304D51BB1E16B41F00401DC
:10275000E1631168490704D51BB1E16B41F0020147
:10276000E1631168080704D51BB1E36B43F008036C
:10277000E3631168D368890633D5980631D594F898
:10278000393003F0EF03222B2BD1A3682169B3F575
:10279000805FA36A76D1526800296FD1C2F3080224
:1027A00023F8022BA362E38D013B9BB2E385C3B9FF
:1027B00023682046DA6822F02002DA6094F8392093
:1027C000322A17BFDA68122322F48072DA601FBF40
:1027D0005A6922F001025A61012384F83930FFF767
:1027E0009EFF23681968DA68090622D5100620D5ED
:1027F00094F8392002F0DF02122A1AD1A268B2F549
:10280000805F226A4CD11188C1F3080159602169A7
:10281000002943D102322262E28C013A92B2E28470
:102820003AB9DA6822F08002DA60DA6842F04002EF
:10283000DA601968DA68490610D552060ED5DA68EA
:10284000204622F04002DA6094F83930322B0CBF77
:102850002223012384F83930FFF760FFE36B5BB17B
:10286000236820461A6801925B680193019B01234B
:1028700084F83930FFF754FF02B010BDD2B223F80C
:10288000012B8FE721B9591C5268A1621A708AE79F
:102890005268591CA16202F07F02F7E70132BAE7E1
:1028A000511C216212785A60B6E7000070B5CB78EF
:1028B0000A78032B0FD8DFE803F00264505930F890
:1028C000223023F4EC4323F070031B041B0C43F46D
:1028D000007320F8223040F60F730C7830F8242073
:1028E00044F4004545F080051A402A4320F824208E
:1028F0008A7A0D78002A40F098804C788A88002CDB
:102900004AD0B0F850405208A4B204EBC50400EB22
:1029100044045200C4F800240C7830F824205206F5
:1029200008D530F82420134043F4004343F0C0039B
:1029300020F824300A7830F8223023F4E04323F0E2
:1029400040031B041B0C83F0200343F4004343F0BB
:10295000800320F82230002070BD30F8223023F4AC
:10296000EC4323F070031B041B0CB2E730F8223059
:1029700023F4EC4323F070031B041B0C43F4C063EB
:10298000A7E730F8223023F4EC4323F070031B0454
:102990001B0C43F480639CE7B0F8503052089BB2A4
:1029A00003EBC5030433520000F5806444F81320A0
:1029B000B0F850200B780D6992B202EBC3023E2DA5
:1029C00002F1060229D9C5F34F16EB0604BF06F142
:1029D000FF339EB26E4B43EA86239BB244F812301B
:1029E0000A7830F822305E040BD530F8223023F01C
:1029F000F0031B051B0D43F4404343F0800320F814
:102A000022300A7830F8223023F4804323F0700318
:102A10001B041B0C83F4405397E7C5F34F03ED07EA
:102A200044BF01339BB29B02D7E730F8252022F444
:102A3000F8721205120D42F4014242F0800220F8B1
:102A40002520B0F850200C7892B202EBC402CC885A
:102A500000F580656408640045F81240B0F8502025
:102A60000C7892B202EBC4020C8904326408640050
:102A700045F812404A780C78002A47D130F82420D3
:102A8000550408D530F82420134043F4404343F064
:102A9000800320F824300A7830F822305C060BD509
:102AA00030F8223023F0F0031B051B0D43F40043E4
:102AB00043F0C00320F822300A7830F8223023F0A7
:102AC000F0031B051B0D43F4004343F0C00320F843
:102AD000223048F280020C7830F8243023F480430E
:102AE00023F070031B041B0C83F44053134320F8A2
:102AF0002430097830F8213023F4E04323F04003F8
:102B00001B041B0C134320F8213024E730F8242049
:102B1000520408D530F82420134043F4404343F0D6
:102B2000800320F824300A7830F822305B060BD579
:102B300030F8223023F0F0031B051B0D43F4004353
:102B400043F0C00320F822300A7830F8223023F016
:102B5000F0031B051B0D43F4404343F0800320F8B2
:102B6000223048F280020C7830F8243023F4E0431D
:102B700023F040031B041B0C134320F82430097876
:102B800030F8213023F4804323F07003B8E700BF0E
:102B90000080FFFF0A788AB9038823F4804323F07A
:102BA00040031B041B0C83F4805383F0100343F495
:102BB000004343F080030380002070474B7883B1CB
:102BC00030F8223023F4E04323F040031B041B0CB5
:102BD00083F0100343F4004343F0800320F82230D5
:102BE000EAE730F8223023F4804323F070031B041B
:102BF0001B0C83F48053EDE74B780A7813B330F85D
:102C000022305B060BD530F8223023F0F0031B0591
:102C10001B0D43F4004343F0C00320F822300A7830
:102C200030F8223023F4E04323F040031B041B0C54
:102C300083F0300343F4004343F0800320F8223054
:102C40000020704730F822305B040BD530F822307A
:102C500023F0F0031B051B0D43F4404343F08003B6
:102C600020F822300A7830F8223023F4804323F011
:102C700070031B041B0C83F44053DBE711B9802362
:102C8000A0F84C3000207047B0F8440080B2704784
:102C90000020704710B50024013300F580605B1000
:102CA00000EB4202A34200D110BD31F8020B22F822
:102CB00024000134F6E7000070B50E468A694978B1
:102CC000054601293369B07A5ED19A421C469BBF02
:102CD00000231446D21AB36188BFB261A3B208BB05
:102CE000B28871692846FFF7D5FFB5F850303278C1
:102CF0009BB203EBC20305EB4303C3F804443278F1
:102D000035F8223023F4E04323F040031B041B0C6E
:102D100083F0300343F4004343F0800325F822306E
:102D2000002070BD3278284635F82210D20011F00C
:102D3000400FB5F8501089B20A4405EB4202C2F8C0
:102D40000444716914BF3289F288FFF7A3FF7378D6
:102D5000327863B935F8223023F0F0031B051B0DE0
:102D600043F4004343F0C00325F82230C7E7012BAA
:102D7000C5D135F8223023F0F0031B051B0D43F4B9
:102D8000404343F08003EFE79A4293BF0023D21AF7
:102D9000B261B36198BF1346327818BBB5F85010D2
:102DA0003E2B89B201EBC20101F1060105F58060FD
:102DB00049D9C3F34F12DC0604BF02F1FF339AB2C4
:102DC000264B43EA82239BB240F81130327835F823
:102DD000223023F4804323F070031B041B0C83F484
:102DE000405397E7B9B9B5F850103E2B89B201EBC3
:102DF000C20101F1020105F580641CD9C3F34F1033
:102E0000DA0604BF00F1FF3290B2144A42EA80228F
:102E100092B244F81120717832780029BED001298D
:102E2000D4D1B5F8501089B201EBC20105EB4101D4
:102E3000C1F80434CAE7C3F34F02D80744BF0132D4
:102E400092B29202E4E7C3F34F02DB0744BF0132C0
:102E500092B2920292B240F81120B7E70080FFFFD1
:102E600010B50024013300F580605B1000EB4202D6
:102E7000A34200D110BD52F8240021F814000134FF
:102E8000F6E708B5D0F814320BB9022008BD1B686C
:102E900098470028F9D108BD08B5D0F814325B680E
:102EA0009847002008BD38B500F50275044628464D
:102EB00000F065FA012394F80812C4F8F431B4F86C
:102EC0000E32C4F8F83101F01F03012B0ED007D3E6
:102ED000022B10D001F08001204601F0CFFD03E06D
:102EE0002946204600F0D6F8002038BD2946204665
:102EF00000F0CAF9F8E72946204600F0DDF9F3E7CB
:102F000038B50446154611BBD0F8F431032B0FD168
:102F1000D0F80C31D0F8102193420BD99B1A9A4269
:102F200028BF1A46C0F80C3192B2294600F050FA78
:102F3000002038BDD0F814321B6923B190F8FC2171
:102F4000032A00D19847204600F04AFAF0E7D0F86B
:102F500014329B69002BEBD090F8FC21032AE7D1B7
:102F60009847E5E770B5134604460E4600293DD163
:102F7000D0F8F421022A0FD1C569026A954214D90A
:102F8000AA1AC261194692B200F01AFA33461A46DA
:102F90001946204601F09EFD94F80032012B02D123
:102FA000002384F80032002070BD8369B3FBF2F582
:102FB00002FB153565B99A420AD8D0F8F821934238
:102FC00006D22A4600F0FCF9C4F8F8512B46DEE799
:102FD000D4F81432DB682BB194F8FC21032A01D118
:102FE00020469847204600F006FAD5E7D0F814327C
:102FF0005B69002BD7D090F8FC21032AD3D19847E6
:10300000D1E7002238B5044640251146402301F09F
:103010002BFD2B46C4F8105100228021204601F0E0
:1030200023FD012384F8FC31D4F8183225622BB13A
:10303000D4F8143221795B6820469847002038BDC7
:1030400001740020704790F8FC3180F8FD310423B2
:1030500080F8FC310020704790F8FD3180F8FC3199
:103060000020704708B590F8FC21032A04D1D0F85D
:103070001432DB6903B19847002008BD10B504463F
:10308000802101F0FBFC2046BDE81040002101F04A
:10309000F5BC000037B54B7804460D46092B79D8AE
:1030A000DFE813F0C900E5007800D90078006D0072
:1030B0000A007800B9008D004B881A0A013A062AE6
:1030C00068D8DFE802F0041C296767495200D0F88D
:1030D00010321B680DF10601207C9847BDF80620D0
:1030E000002A67D0EB88002B64D09A4228BF1A468A
:1030F0000146ADF80620204600F055F95AE0027C62
:10310000D0F8143232B99B6A0DF1060098470223B9
:103110004370E3E7DB6AF7E7DBB2052B3AD8DFE879
:1031200003F003070B0F1317D0F810325B68D1E7D9
:10313000D0F810329B68CDE7D0F81032DB68C9E7D1
:10314000D0F810321B69C5E7D0F810325B69C1E7CF
:10315000D0F810329B69BDE7037CDBB9D0F814329C
:103160000DF106005B6B9847B8E7037C93B9D0F884
:1031700014320DF106001B6B98470723C8E78B88B4
:1031800043B9CB8833B990F8FC318D78032B05F027
:103190007F0503D12046FFF771FF0BE080F8FE5159
:1031A000294601F089FC204600F01AF92DB10223CE
:1031B00084F8FC31002003B030BD0123F8E78978A2
:1031C000304D01292970E5D890F8FC31022B0CD044
:1031D000032BDFD1B1B90223416080F8FC31FFF746
:1031E0005BFE204600F0FCF8E4E70029F9D001215D
:1031F0000323416080F8FC312046FFF742FE02289D
:10320000EFD1C7E741680129EBD0C9B2FFF744FE0F
:1032100029786160F0E7CA88012ABBD190F8FC31B7
:10322000022B03D0032BB5D1011D64E70146002317
:1032300041F8083F5FE790F8FC31023B012BA9D829
:103240000123C360D0F804320BB10323C360022210
:1032500004F10C014FE74B88012BABD1C4F80432C9
:10326000D4F8143229469B6820469847B9E790F86D
:10327000FC31023B012B8DD84B88012B9AD10023C6
:10328000ECE700BFA500002038B590F8FC310446FB
:10329000032B0D460DD10B79012B0AD8D0F814322F
:1032A0009B689847EB8813B9204600F099F80020F6
:1032B00038BDFFF7E3FEFAE770B50A788E8802F0B2
:1032C0006002202A04460D46F3B205D1D0F814322C
:1032D0009B689847002070BD4A78012A1CD02AD3E9
:1032E000032AF7D190F8FC21022A40D0032A02D009
:1032F000FFF7C4FEEEE74A8822B95E0602D01946FF
:1033000001F0BCFBD4F8143229469B68204698474C
:10331000204600F065F8DDE790F8FC21022A26D06F
:10332000032AE5D14A88002AD4D15906F0D019469B
:1033300001F0ABFBE6E790F8FC21022A17D0032A44
:10334000D6D103F07F0516F0800F00EB0515194666
:1033500014BF143505F5827501F09EFB68B1012399
:103360002B6002222946204600F01DF8B2E75A06DB
:10337000B0D0194601F082FBACE72860F1E70B788A
:1033800003704B784370CA788B7803EB0223438039
:103390004A790B7903EB02238380CA798B7903EB9B
:1033A0000223C38070471346022210B5C0F8F421EF
:1033B00083610A46C361002101F085FB002010BD36
:1033C00008B513460A46002101F07DFB002008BD28
:1033D00008B513460A46002101F07CFB002008BD19
:1033E00008B50423C0F8F43100231A46194601F049
:1033F0006AFB002008BD08B50523C0F8F43100239E
:103400001A46194601F066FB002008BD30B5B0F938
:10341000084085B0842C08BF0024028A18BF0334FA
:103420000B4690E8220003A801900094284600F083
:103430009FF8012814BF0020039805B030BD08B5DF
:10344000002808BF012000F033FA002008BD08B5AD
:1034500000F088FA012803D0BDE8084000F02ABB3C
:1034600008BD00F1080343604FF0FF32C360036101
:103470000023826003607047002303617047436844
:103480009A684B608A609A68516099600368086125
:103490000133036070470A6830B5531C0AD10369D1
:1034A0005A684A6091608B60596003680861013313
:1034B000036030BD00F108035C682568AA42EFD3C1
:1034C0002346F9E74168826803698A60826851602F
:1034D0005968884208BF5A600022026118680138A2
:1034E00018607047064B1A6812681AB94FF0FF321D
:1034F0005A6070471A68D268D2685268F8E700BF0D
:10350000A8000020F8B5184C0546A668E0680F46EC
:103510000430FFF7D7FF38B9E2682369D16A012286
:103520008A4023EA020323616B1C07D137B1E168AB
:103530000E480431BDE8F840FFF7A1BF3544E36809
:10354000AE425D6006D9A06AE168BDE8F84004318A
:10355000FFF7A1BF2068E1680431FFF79CFF6368B3
:103560009D4238BF6560F8BDA8000020BC00002067
:103570002DE9F84F4FEA820A804650460F46994699
:103580000B9E00F0CFFA0546002800F096805420EC
:1035900000F0C8FA0446002800F08C80AAF1040A62
:1035A000056355447B1E25F0070A00F134020F37EE
:1035B000597802F8011B13F8011F09B1BB42F7D17A
:1035C0000A9D4FF0000B062D28BF0625271DE5623A
:1035D0006564384684F843B0C4F848B0FFF74CFF40
:1035E000C5F1070504F11800FFF746FFC4F84CB019
:1035F0002461A561646284F850B04A464146504651
:1036000000F0D8F9206006B13460334D00F0FAF9CB
:103610002B6C05F1440801332B64EE68002E4FD16A
:10362000EC602B6C012B1ED108EB06001436FFF763
:1036300018FF8C2EF8D1294E304606F11409FFF7F9
:1036400010FF4846FFF70DFFA6F1A400FFF709FFA2
:1036500006F12800FFF705FFA6F1BC00FFF701FF08
:103660002E60C5F8289001261420D5F81031E26AA2
:1036700029690133C5F8103106FA02F30B4300FB48
:10368000028039462B61FFF7FAFE00F0DDF9D5F82C
:103690000C3163B1EB68DA6AE36A9A4207D24FF001
:1036A00080520F4B1A60BFF34F8FBFF36F8F3046BE
:1036B000BDE8F88F284600F0BDFA4FF0FF36F6E778
:1036C000D5F80C31002BCED1EB68DA6AE36A9A4266
:1036D00098BFEC60C7E700BFA80000207801002079
:1036E00004ED00E0034AD2F818310133C2F8183172
:1036F000704700BFA80000202DE9F84F354BD3F8E4
:1037000018211C46002A3BD19E6801369E60B6B93E
:103710001B681B6843B14FF0500383F31188BFF35C
:103720006F8FBFF34F8FFEE72368A26A2260A36208
:10373000D4F820310133C4F82031FFF7D3FE636899
:1037400000259E420BD34FF001094FF0140BDFF818
:1037500088A023681B68D3B94FF0FF33636014223D
:10376000E368DB6A02FB03435B6C022B28BF012585
:10377000D4F82831002B18BF01252846BDE8F88F62
:10378000D3F8243100250133C4F82431F0E723684D
:10379000DB68DF687B689E42E0D307F1040840469F
:1037A000FFF790FEBB6A1BB107F11800FFF78AFE16
:1037B000F86A226909FA00F3134341460BFB00A0A3
:1037C0002361FFF75CFEE368FA6ADB6A9A4228BF6E
:1037D0000125BEE7A8000020EC0000202DE9F843F9
:1037E000314CD4F8183143B94FF0500383F31188AA
:1037F000BFF36F8FBFF34F8FFEE700F003F9D4F8EC
:103800001831013BC4F81831D4F818512DB10024F7
:1038100000F01AF92046BDE8F883236C002BF6D09F
:1038200001264FF0140804F14407E36AEBB90DB127
:10383000FFF758FED4F824514DB10126FFF75CFF85
:1038400008B1C4F82861013DF8D1C4F82451D4F876
:103850002831002BDBD04FF08052144B1A60BFF39D
:103860004F8FBFF36F8F0124D2E7A36BDD6805F1A3
:10387000040905F11800FFF725FE4846FFF722FE70
:10388000E86A226906FA00F31343494608FB007010
:103890002361FFF7F4FDE368EA6ADB6A9A4228BF16
:1038A000C4F82861C1E700BFA800002004ED00E0D3
:1038B00008B540B94FF080520E4B1A60BFF34F8FDE
:1038C000BFF36F8F08BD0C4BD3F8181141B14FF007
:1038D000500383F31188BFF36F8FBFF34F8FFEE761
:1038E000FFF700FFFFF70EFEFFF778FF0028E1D09B
:1038F00008BD00BF04ED00E0A8000020184B10B583
:10390000D3F8182118461AB10122C3F8282110BD96
:10391000C3F828211A69B2FA82F21421D2B2C2F194
:103920001F0251430B445C6C44B94FF0500383F3C6
:103930001188BFF36F8FBFF34F8FFEE79C6C01447C
:1039400064684C318C4208BF61689C6408BF99640C
:10395000142303FB0202936CDB68C36010BD00BF3D
:10396000A8000020064BD3F80C2132B1D3F818314F
:10397000002B0CBF0220002070470120704700BFC1
:10398000A80000200A4B1B68013308D04FF05003F9
:1039900083F31188BFF36F8FBFF34F8FFEE74FF0B4
:1039A000500383F31188BFF36F8FBFF34F8FFEE790
:1039B000000000204FF0807340F8043C054B21F0DC
:1039C000010140F8081C40F80C3C40F8202C40381D
:1039D000704700BF853900080000000000000000AB
:1039E000074B19680868B0E8F00F80F30988BFF347
:1039F0006F8F4FF0000080F311884EF00D0E70476E
:103A0000B40000204FF0500383F31188BFF36F8F91
:103A1000BFF34F8F0A4A13680133012B13600DD196
:103A2000084B1B6813F0FF0F08D04FF0500383F3CF
:103A30001188BFF36F8FBFF34F8FFEE7704700BF52
:103A40000000002004ED00E0084A136843B94FF07D
:103A5000500383F31188BFF36F8FBFF34F8FFEE7DF
:103A6000013B13600BB983F31188704700000020FD
:103A7000EFF30980BFF36F8F0D4B1A6820E9F00F49
:103A800010602DE908404FF0500080F31188FFF7D7
:103A900035FF4FF0000080F31188BDE80840196839
:103AA0000868B0E8F00F80F30988BFF36F8F7047A4
:103AB000B400002008B54FF0500383F31188BFF322
:103AC0006F8FBFF34F8FFFF717FE18B14FF0805283
:103AD000024B1A60002383F3118808BD04ED00E057
:103AE0000F4B30B51D461A68824217D35C6819190E
:103AF000884201BF41681846091959604468011994
:103B00008A4206D1A9688A421FBF51681268091902
:103B100041609842026018BF186030BD1346E2E76A
:103B2000D40100202DE9F041414D0446FFF7DAFDB4
:103B3000AB681BBB05F10C02560708BF4FF440638E
:103B40004FF000011FBF05F1130222F0070205F636
:103B50000C439B1A1344083B23F0070369602A6057
:103B600059601960AB60991A13604FF000435160BF
:103B7000C5F80C1CC5F8101CC5F8143CD5F8148CFD
:103B800018EA040F15D1002C41D004F1080358079E
:103B90001CBF23F0070308335BB1D5F8107CBB4290
:103BA00007D82E6822487268934204D8A9688E42CA
:103BB00007D100242BE031680029F7D030460E46AB
:103BC000F1E73168D21A102A046801600FD9F018A1
:103BD000410708D04FF0500383F31188BFF36F8F74
:103BE000BFF34F8FFEE742607360FFF779FF7368A2
:103BF000D5F80C1CFF1A48EA0303736000238F42B8
:103C0000C5F8107C38BFC5F80C7C08343360FFF76A
:103C1000E5FD630708D04FF0500383F31188BFF32D
:103C20006F8FBFF34F8FFEE72046BDE8F08100BFE6
:103C3000D401002038B5044680B3194D50F8043C37
:103C4000D5F8142C134208D14FF0500383F3118898
:103C5000BFF36F8FBFF34F8FFEE750F8081C41B1E1
:103C60004FF0500383F31188BFF36F8FBFF34F8F73
:103C7000FEE723EA020340F8043CFFF733FDD5F8E2
:103C8000102C54F8043CA4F108001344C5F8103C6F
:103C9000FFF726FFBDE83840FFF7A0BD38BD00BFE5
:103CA000D4010020FCF73EBF254BF0B59A6989B0DE
:103CB00042F020029A619A69224F02F0200201929A
:103CC000019A9A69204C42F004029A619A69384636
:103CD00002F004020292029A9A6948F2030142F049
:103CE00008029A619B69002203F008030393039B77
:103CF000FDF77EF8002220464FF46071FDF778F85A
:103D0000012648F20303022504A9384604930596C8
:103D10000795FCF78DFF3F2304930C4B04A90593F3
:103D2000002320460693FCF783FF4FF4607304A939
:103D30002046049305960795FCF77AFF09B0F0BD7D
:103D40000010024000080140000C0140000011106A
:103D5000F0B5054685B017461E465BB3438801297A
:103D6000009329D1174B0024019303236946686807
:103D700003930294FCF75CFF6A88032F98BF124BF1
:103D8000A2F1020292B294BFD95D21460E2A8FBFE2
:103D900006240D4BD21892F904402A780B4B02F0FE
:103DA0000F0243F8226020460022FCF7DBFE20468B
:103DB000FCF70CFF05B0F0BD02290CBF044B054B0E
:103DC000D1E700BF0000111010740008EC0D0020B6
:103DD000000021100000311090F90030013304D0B0
:103DE000CAB241884068FDF703B8704730B5154640
:103DF0004A1C89B0044629D00170012001F00F024D
:103E000000FA02F211F0F001628021D12F496160C5
:103E100001F58431886940F004008861896901F006
:103E200004010091009904929DF83020069203222B
:103E30000792002D3CD1059504A96068FCF7F8FEB7
:103E4000012D03D10D992046FFF7C6FF09B030BD03
:103E500010290DD11E49616001F58231886940F059
:103E600008008861896901F0080101910199DAE788
:103E700020290DD11749616001F58031886940F032
:103E800010008861896901F0100102910299CAE766
:103E90003029C8D11049616001F57C41886940F042
:103EA00020008861896901F0200103910399BAE734
:103EB000032DC0D0022D04D1012BBCD112230593B8
:103EC000BAE7012B0CBF11230123F8E700080140DA
:103ED000000C014000100140001401400120FCF7DB
:103EE00091BF0220FCF78EBF0420FCF78BBF082097
:103EF000FCF788BF1020FCF785BF704770470000B3
:103F000060B100230128DAB203F1010304D1054BAB
:103F100053F8223023B118474008F3E70246F6E78A
:103F2000704700BFEC0D002070B4C1F30716062ED9
:103F30009DF80C4003D8039470BCFFF757BF70BCCA
:103F4000704710B490F90040C4F30714062C02D84F
:103F500010BCFFF7FDBE10BC704790F90030C3F3F2
:103F60000713062B01D8FFF737BF704730B5154C44
:103F700085B000220DF10A0105462046FEF712F831
:103F80000DF1060100222046FEF71AF99DF80920DE
:103F9000A38A632A04BF0121A175A17DADF8043075
:103FA00031B11A44934201BF00226433A275A38247
:103FB00001AB03CB286028461B8869602B8105B0C4
:103FC00030BD00BF2C0E00202DE9F04F87B0002837
:103FD0003AD103A8FFF7CAFF9DF81230BDF80C5084
:103FE00000939DF80F809DF810909DF811409DF86A
:103FF00013A09DF814304FF0000B0026002701930A
:1040000025440FFA8BF3AB422ADB08F1FF38002C72
:104010003AD015F0030437D000243D4DDFF8F4B05A
:10402000E3B2434504F1010436DA2B44187B0BFB61
:1040300000F0FCF7E5F902460B4630463946FCF73E
:10404000A3F806460F46EBE783790588009390F8BE
:10405000038090F80490447990F807A0037ACAE7A7
:1040600013B11BF0030F0BD123A3D3E90023304678
:104070003946FCF789F80BF1010B06460F46C0E7FD
:104080001FA3D3E90023F2E7214DDFF888B0E3B2A4
:10409000434504F101041EDB3C2000FB0AF04FF411
:1040A000616A009B0AFB0300019B1844194B03FB48
:1040B0000900FCF7A5F932463B46FCF765F812A368
:1040C000D3E90023FCF712FA02F0CEFCFCF7D0FC97
:1040D00007B0BDE8F08FE85C0BFB00F0FCF790F94F
:1040E00002460B4630463946FCF74EF806460F4668
:1040F000CDE700BFAFF300800000000050287E41F4
:104100000000000038137E41FCA9F1D24D62B03F9F
:1041100023740008805101007FB51D4DEC7DA4BBC8
:104120004FF4004393FAA3F30126B3FA83F3194A39
:10413000284642F823600323174AAC6085E80C0048
:10414000FEF774F9062304A901F80A3D2246284621
:104150008DF809408DF807608DF80860FDF7D8FFED
:1041600022460DF10A0128468DF80A408DF80B40D1
:104170008DF80C40FDF7C4FE224604212920FCF7EF
:10418000F1FC2920FCF722FDEE7504B070BD00BFE4
:104190002C0E0020000442420028004000000000D5
:1041A0002DE9F04F064687B000216948FEF7D1F8A7
:1041B00003A8FFF7DBFE674A03AB03CB106066483A
:1041C0001B88B04228BF3046002808BF0120138159
:1041D0005160FCF715F90022604BFCF787F9804627
:1041E000894602F041FC42464B4606460F46FBF725
:1041F000C9FF51A3D3E90023FCF778F90022584BFB
:10420000FCF774F9DFF848B18046DBF818008946FE
:10421000FCF706F902460B4640464946FBF7B4FF59
:10422000FCF7FEFB3F289DF814A09DF813509DF865
:10423000124046DCCBF818000FF20419D9E90089C6
:104240003FA3D3E9002330463946FCF7D5FB0028CD
:1042500043D10FF2F409D9E900893BA3D3E9002344
:1042600030463946FCF7C8FB00283FD14FF0000824
:10427000DFF8F09000223B4B30463946FCF7BCFBA0
:1042800000283ED15046FCF7CBF832463B46FBF7C0
:104290007BFFFCF7EDFB80B23B283DD83B2D40D89F
:1042A000172C43D8002206A98DF8060001F8144DFA
:1042B000274802928DF80550FDF7AEFF07B0BDE824
:1042C000F08F4038CBF81800394630460022264B94
:1042D000FBF75AFF06460F46AEE7304639464246E0
:1042E0004B46FBF74FFF06460F46A9E730463946D7
:1042F00042464B46FBF746FF013406460F46A4B242
:10430000ABE73046394642464B46FBF73BFF0135AB
:1043100006460F46ADB2ADE73C38013580B2ADB2CE
:10432000BAE73C3D0134ADB2A4B2B7E7183CA4B241
:10433000B6E700BFAFF30080FCA9F1D24D62B03FF9
:10434000000000000018F540000000000020AC4014
:104350002C0E0020D4110020CC5C020000402F4025
:1043600000408F4000004E400000F03F0D4BDA69E6
:10437000824207D293F8202022B1002283F8202025
:10438000DA69801ADA6990420AD9312803D8002202
:1043900083F821207047012283F82120DB69C01AAD
:1043A000704700BF2C0E002010B50020FFF70CFE58
:1043B00004460448FFF708FE844238BF04F1FF3486
:1043C000201A10BDD4110020074B5A68D20755BFE0
:1043D00001221A68054B42F004024CBF1A6083F8B0
:1043E0002020034B5B687047007000402C0E0020BB
:1043F000001002400000000030B5254C87B0204678
:10440000FDF7E0FF00212046FDF7A3FFFFF7DCFFEB
:1044100094F823507DBB03A8FFF7A8FD2B462A463E
:1044200001A92046FDF768FF3C234FF461659DF824
:1044300013009DF814109DF8052003FB00119DF852
:10444000120005FB00109DF8061003FB02129DF8F8
:10445000043005FB0323C01AFBF7D2FF0AA3D3E9FC
:104460000023FCF743F802F0E3F9FCF701FB01231A
:10447000E06184F82330002384F8223000F02CFA25
:1044800007B030BDAFF30080FCA9F1D24D62B03F60
:104490002C0E00207FB50268114B9A421DD103F506
:1044A00060439A6902A942F480529A619B690D485F
:1044B00003F480530193019BB023029302230393DF
:1044C00003230593FCF7B4FB40230293002302A9C6
:1044D000044803930493FCF7ABFB07B05DF804FBBF
:1044E00000300140000801400F4B1B68B3FBF1F1A5
:1044F00001B1013941EA510141EA910141EA111149
:1045000041EA112141EA11414B1C23EA0103B3FAAC
:1045100083F3C3F12003DBB2013B072B28BF072342
:10452000DB00C361704700BF040000202DE9F043A9
:1045300000250226044691469846304B85B0DA683D
:104540009DF9307042F48052DA60DA6822F48052C9
:10455000DA609A6942F480529A619B69324603F4A8
:1045600080530393039B264B40F8583B2B46019501
:104570000096FFF7D9FC2B463246494604F1640009
:1045800001950096FFF7D0FC2B4601950096324628
:10459000414604F17000FFF7C7FC7B1C1DD00123CE
:1045A0000195009332462B46394604F17C00FFF713
:1045B000BBFC0723A560E560256165612562656236
:1045C000A562E36265600F492046FFF78DFF204634
:1045D000FDF79CFF05B0BDE8F0834FF40073A361C5
:1045E0000723E3624FF48273A560E560256165618E
:1045F00025626562A5626360E5E700BF00100240C6
:10460000003001408096980003689B68194214BFEF
:10461000012000207047024610B50C4601680B6867
:1046200043F040030B6002211046FFF7EDFF002826
:10463000F9D01368E4B2DC6001211046FFF7E4FF13
:104640000028F9D01368D868C0B210BD204B07B558
:104650009A69032042F001029A619B6903F0010309
:104660000193019BFCF76CFA00226FF00B001146DE
:10467000FCF778FA00226FF00A001146FCF772FA94
:1046800000226FF009001146FCF76CFA00226FF06F
:1046900004001146FCF766FA00226FF00300114691
:1046A000FCF760FA00226FF001001146FCF75AFA9D
:1046B00000224FF0FF301146FCF754FA054A5368C8
:1046C00023F0E06343F00073536003B05DF804FB34
:1046D00000100240000001407047FEE7FEE7FEE7E1
:1046E000FEE7704708B5FCF70FFAFCF79DFABDE846
:1046F0000840FEF7ACBE00000148FDF7E9BE00BF70
:10470000E01100200148FCF705BC00BFF4110020B7
:104710001F4BF7B51A681168D368890612D59B0636
:1047200010D550681B4BC0B219881B4FDE28785437
:104730001A4C11D1012121702178012902BF198859
:104740000131198013681248019353680193019B4A
:10475000FDF7E7FF03B0F0BDCA28EDD10126104DEB
:10476000B1422E70AE4603D800218EF80010E3E768
:10477000B878471CB942F7DD02308142DCDD002009
:104780002870084D20702E70074D18802970D3E7CF
:10479000C41C0020C4110020C01B0020C01C00202D
:1047A000041D0020061D0020051D00200F4B1A6867
:1047B00042F001021A6059680D4A0A405A601A68AC
:1047C00022F0847222F480321A601A6822F4802265
:1047D0001A605A6822F4FE025A604FF41F029A606F
:1047E0004FF00062034B9A60704700BF0010024018
:1047F0000000FFF800ED00E00022064B10B51A7033
:1048000004460068FFF7B2FD2060BDE81040FFF7E6
:10481000C7BC00BF500E0020074B10B45A6822B12D
:104820000468091B1160002111720261012210BC91
:1048300002725860FFF7E0BF500E00200023C160F5
:1048400003604360037203617047000070B5044663
:1048500072B6B8B11F4D6A681346ABB9616823726E
:10486000216062B1137A9BB1FFF79EFD6B681968F6
:10487000884294BF091A491A23688B420AD22046FB
:10488000FFF7CAFF62B670BD9C42FBD01B69E4E72C
:104890001168F1E76D682A6922B95B1A23602C61FF
:1048A0002261EFE710680844834205D25B1A236057
:1048B0001068C31A1360F2E7116921B91B1A23604B
:1048C00014612161DEE70E6815460A460146304450
:1048D000EAE700BF500E002010B5144CFFF764FD4E
:1048E0006368E3B100211A68197282428ABF121A02
:1048F00019601A600023606850B983B1606010BD10
:10490000C26801230069002AF6D060609047F1E791
:104910000268002AF4D003B16060037A03B110BDCD
:104920000123BDE810400372FFF766BF500E002060
:10493000F8B572B61D4D6C682F4604B108B962B661
:10494000F8BD844226D1237AC3B1FFF72DFD6E68EE
:10495000336983B10022216832721A6881420A44A5
:1049600094BF501A101A012218601A7218466B6010
:10497000FFF742FFE3E700237B60E0E72369002BBA
:10498000F9D021686B601A680A441A60D7E723617E
:10499000D5E71C462369002BD1D09842F9D1036991
:1049A000002BF4D001682361EDE700BF500E00201A
:1049B00010B50446FFF7BCFF2046BDE81040FFF7E6
:1049C00045BF38B504460D46FFF7B2FF2560656068
:1049D00038BD0000064B5A684AB1127A3AB11A78CB
:1049E000042A8FBF00221A780132D2B21A7070479F
:1049F000500E002000F57B71D0F81C04FEF753BA6E
:104A000000EB4113D3F81C22D0F81C04FEF778BA4F
:104A100000EB4113DA6BD0F81C04FEF7A3BAD0F810
:104A20001C04FEF71FBB10B504460121D0F81C047E
:104A3000FEF706FBD4F81C04BDE81040FEF7E1BA0F
:104A400010B50446D0F81C04FEF7FDFAA36923B1A3
:104A5000024A136943F00603136110BD00ED00E044
:104A6000D0F81C04FEF7F8BA10B51C46D0F82002A6
:104A700013462246FCF7E6F9002010BD08B5D0F831
:104A80002002FCF7ADFC002008BD08B5D0F82002DC
:104A9000FCF7CFFC002008BD0A06D0F8203245BF45
:104AA00001F07F0103EB411303EB411393F82A005C
:104AB00058BF93F80A02704708B5D0F82002FCF7F7
:104AC000ADF9002008BD08B5D0F82002FCF701FAC6
:104AD000002008BD08B5D0F82002FCF7D6F9002068
:104AE00008BD01380A44914200D1704711F8013BDA
:104AF00000F8013FF7E700000122014B1A707047F0
:104B0000580E002008B50B4C0B4E04F108056268E6
:104B10003146284602F030F800232846237500F07D
:104B2000EDFA4FF47A70FEF78AFC63680133636034
:104B3000EDE700BF580E0020B875000838B50B4CE3
:104B400004F58470FFF734FFD4F81C2104F1080544
:104B5000013228460649C4F81C2102F00DF8002352
:104B60002846A375BDE8384000F0C8BA580E0020AA
:104B7000B87500087047000010B50C4C237883B955
:104B80000B4904F50A70FFF759FE04F50A704FF45B
:104B90007A71FFF716FF04F50A70FFF757FE2378C6
:104BA00003B110BDFFF716FFF9E700BF580E002054
:104BB000F94A000808B5054C4FF47A70FFF772F80F
:104BC0004FF400412046FCF718F9F5E700080140D2
:104BD000092310B594B000220A934FF480330C924D
:104BE0000B930122022412934FF4E0130AA80E92B1
:104BF000109211941393FCF73FFC08B1FFF7DAFF12
:104C00000F2305934FF4806307900990214605A870
:104C100006940893FCF7D2FE0028EFD111230193EC
:104C20004FF44073049001A80293FCF7B1FF0446CF
:104C30000028E3D1FCF776FF4FF47A73B0FBF3F072
:104C4000FBF7D0FF0420FBF7E3FF224621464FF09D
:104C5000FF30FBF787FF14B010BD000030B589B0FE
:104C6000FBF740FFFFF7B4FFFFF71EF84FF40041DA
:104C70004F48FCF7C2F84FF49670FFF713F84FF463
:104C800000414B48FCF7B9F84FF49670FFF70AF86B
:104C90004FF400414648FCF7B0F84FF49670FFF728
:104CA00001F84FF400414248FCF7A7F84FF4967022
:104CB000FEF7F8FF4FF0FF33062207213D4800932F
:104CC0000523FFF733FC01F029FDFFF725FA002249
:104CD00004210320FBF746FF0320FBF777FF0022A8
:104CE00008212520FBF73EFF2520FBF76FFF002260
:104CF00005211420FBF736FF1420FBF767FF002285
:104D000006201146FBF72EFF0620FBF75FFF00226F
:104D100007201146FBF726FF0720FBF757FF00226D
:104D200008201146FBF71EFF0820FBF74FFF00226B
:104D300009201146FBF716FF0920FBF747FF002269
:104D40000A201146FBF70EFF0A20FBF73FFF00F099
:104D500099F8FFF711FF01224FF400411448FCF7C6
:104D600047F8154B154D1A6803ACD36843F0200380
:104D7000D3600FCD0FC42B68002103A82360FEF77A
:104D800045FB0F4B0F4918600F48FFF757FD4FF4D5
:104D90007A710D48FFF715FE0B48FFF757FD0B48DA
:104DA00000F0ACF94FF47A70FEF77CFFFAE700BF31
:104DB00000080140C81A0020C41C002054740008D8
:104DC000141600203D4B0008600F0020D675000827
:104DD00008B5044B00205B6B98470822024B1A7001
:104DE00008BD00BF68740008981000200922014B1C
:104DF0001A70704798100020054B1A78022A02D1C9
:104E000005221A707047032A0CBF06220722F8E712
:104E1000981000200722014B1A707047981000204C
:104E2000F8B50746DE20124CCEB204F10905207019
:104E3000628000214FF4807228462371667001F071
:104E400092FE32463946284601F082FECA2384F893
:104E50000931084B4FF400411B780748A371074BF9
:104E60001B786371FBF7C9FF0122054B1A70F8BD6F
:104E70001E1800201C170020000801401D170020EC
:104E8000981000202DE9F0478AB000F071F82A4808
:104E90002A4B2B4E43602B4B043083602A4B00245B
:104EA00043602A4B0125C360294B4FF0080803617A
:104EB00033689847F36827489847072340F6B83285
:104EC000DFF8A0A0DFF8A090089289F800308DE804
:104ED0002801224623462846F7698AF8005007949D
:104EE00006940594049503940E21B84705219AF879
:104EF000003099F800200291099521460894079402
:104F000006940595049403948DE81001B66928462B
:104F1000B0470221104B5A7865F307125A701A886D
:104F200061F30B021A800D4B1C800D4B1C705C70E2
:104F30000AB0BDE8F08700BF98100020D14D0008EE
:104F400068740008214E0008ED4D0008F94D000876
:104F5000154E00082082D136281A0020301A002071
:104F60002A1A00201D1700201C170020012070475E
:104F700073B5012500241C4E2A4630460195009544
:104F800000230421FEF7D0FF23462246A6F1C400E9
:104F9000019400951021FEF7C7FF23462246A6F193
:104FA000B800019400951121FEF7BEFF234622466A
:104FB000A6F1AC00019400951221FEF7B5FF23463F
:104FC0002246A6F1A000019400951321FEF7ACFF44
:104FD00001940095234622461421A6F19400FEF781
:104FE000A3FF02B070BD00BF441B002070B5054692
:104FF000124C0368032220460121FEF7A2FF6B68D2
:1050000004F10C0003220121FEF79BFFAB6804F1C1
:10501000180003220121FEF794FFEB6804F124003D
:1050200003220121FEF78DFF2B6904F130000322DA
:10503000BDE870400121FEF784BF00BF801A002048
:10504000024B984294BF8020002070473FDD4A1FEA
:1050500013B5002301241946224601940094064802
:10506000FEF762FF00230094019322462146034885
:10507000FEF75AFF02B010BD341A0020401A00207B
:1050800013B5012300241A462146019400940648D2
:10509000FEF74AFF0123019400941A46194603487B
:1050A000FEF742FF02B010BD341A0020401A002063
:1050B000054B1A78824205D0187008B9FFF7C8BFAF
:1050C000FFF7DEBF704700BFBC10002010B50446DC
:1050D00048B100210748FEF740FF0121BDE810401C
:1050E0000548FEF73ABF01210248FEF736FF214688
:1050F000F4E700BF341A0020401A002010B504461F
:10510000FBF7D6FC2146BDE8104082B200230148DF
:1051100001F058BBC41C0020002310B5074951F80A
:105120003340DA00844203D80A449468A04203D38F
:105130000133152BF3D1FEE7107910BDC0740008C0
:10514000054B93F8DD202AB993F8042112B9012206
:1051500083F80421704700BF741A0020014B93F8B4
:10516000DC007047741A002037B500240D4D23462B
:1051700001221721284601940094FEF7D5FE012054
:10518000FEF790FD01232846019300942346224612
:105190001721FEF7C9FE062003B0BDE83040FEF738
:1051A00081BD00BF741A002070B5054616460C4636
:1051B0000D480021FEF7D1FE45F080010B48FFF7B6
:1051C0002AFA013E651E3444084EA54205D101214C
:1051D000BDE870400448FEF7C0BE15F8011F304618
:1051E000FFF719FAF1E700BF441B0020C81A00209E
:1051F00007B502AB03F8011D01221946FFF7D4FFE2
:1052000003B05DF804FB0000114B10B5C3F8E000DB
:10521000FBF7F6F80CA3D3E90023FBF791FAFBF7B1
:1052200027FC0446C0F307410620FFF7E1FFC4F363
:1052300007210720FFF7DCFFE1B20820BDE810409E
:10524000FFF7D6BFAFF300800000000080844E401F
:10525000741A002070B5054616460C460D4800210C
:10526000FEF77BFE05F07F010B48FFF7D4F9013E06
:10527000651E3444084EA54205D10121BDE87040A9
:105280000448FEF76ABE00213046FFF7C4F905F86E
:10529000010FF0E7441B0020C81A002007B50122C7
:1052A0000DF10701FFF7D6FF9DF8070003B05DF889
:1052B00004FB0000000000002DE9F84F884620B1F3
:1052C00001285AD00020BDE8F88F714C2720B4F88F
:1052D000F850FFF7E3FF20F0F80001302844FBF717
:1052E0009FF80B4694F8FA100246002000293FD19F
:1052F0006849FAF749FF064630200F46FFF7CEFF10
:1053000030F0F90332463B460CBF002161490020D2
:10531000FAF73AFF064640460F46FBF781F8024689
:105320000B4630463946FAF72FFF0B4694F8FC102F
:1053300002460020F1B90021FAF726FF0022564B61
:10534000FBF7D4F80646D4F8F4000F46FBF758F8FC
:1053500002460B4630463946FBF7F2F900224F4B26
:10536000FBF7C4F801F080FBFBF782FBBDE8F88F88
:105370000021BEE74FF08041DEE7454CD4F81831FC
:10538000073B022B77D8464A02EBC303D3E92C67CD
:105390000120D4F81C51A840FBF742F802460B4606
:1053A00030463946FBF7CCF902460B460020394916
:1053B000FBF7C6F906460F46B4F82201FBF730F8B2
:1053C0000022384BFAF7E0FE32463B46FBF78EF8F8
:1053D00094F82431AD00824694F82601002B8B46C8
:1053E000C5F11C0101EB001114BF1420002001EBDA
:1053F000C801081AFBF704F894F820318046002B06
:1054000014BF02200020281A8946FAF7F9FF024645
:105410000B4640464946FBF793F901F009FA8046EE
:10542000894694F821010430FAF7FAFF42464B46C8
:10543000FBF75CF80022002304460D46FBF7E6FA72
:10544000E0B10022144B20462946FAF79DFE324671
:105450003B46FBF74BF852465B46FAF795FE0022B7
:105460000E4BFBF743F808A3D3E90023FAF78CFEB1
:1054700001F06EFA78E70026002789E70020064948
:10548000E5E700BFAFF300802B8716D9CEF7EF3FDB
:10549000741A00200000F03F0000204000408F40C0
:1054A000C07400080000114008B520B101280AD0DE
:1054B0004FF0FF3008BD1120FFF7F0FEC0F34700AA
:1054C000404200B208BD074B1B20D3F8E020064B3A
:1054D0009A4203D9FFF7E2FE9D38F2E7FFF7DEFEBE
:1054E000A438EEE7741A002040DD4A1F10B50446C8
:1054F00068B90120FFF7DCFD0120FFF7CFFE00F0C7
:10550000F80121430120BDE81040FFF771BE0020E3
:10551000FFF7CEFD032C0CBF01200020FFF7D6FDC6
:10552000EAE7000008B50748FFF702FA0648FFF768
:10553000FFF90020FFF7DAFF0022044B83F8DC209C
:1055400008BD00BFAC1B00204C1A0020741A0020BC
:1055500008B50748FFF7ECF90648FFF7E9F901201D
:10556000FFF7C4FF0022044B83F8DC2008BD00BF16
:10557000AC1B00204C1A0020741A00200000000010
:10558000F8B5B14C074694F8DD5025B1012D00F077
:105590008480002627E0402094F8FE60FFF77EFE1E
:1055A00000F0030141F00C014020FFF721FE4120F3
:1055B000FFF774FE60F03E01C9B24120FFF718FE0C
:1055C0003520FFF76BFE00F03F0084F812011E212A
:1055D0000D20FFF70DFE84F8045184F80551A4F85E
:1055E0001051A4F80E514FF480720021974801F039
:1055F000BAFA012384F8DC3037B195483946FFF711
:10560000E0F99348FFF722F994F8DD30002B40F0E1
:10561000F9800520FFF76AFF002E40F0FB80B4F808
:10562000F800FAF7FDFE064627200F46FFF736FE84
:1056300020F0F800FAF7F4FE0022864BFAF7A4FDFA
:1056400032463B46FAF7A0FD0022834BFAF79CFD59
:105650000022824BFAF74AFF0646D4F8F4000F46C0
:10566000FAF7CEFE02460B4630463946FBF768F89D
:1056700000227B4BFAF73AFF01F0DAF8794B00226F
:10568000FAF782FDFBF7F4F901467748FFF799F93D
:10569000BDE8F8407448FFF7D9B894F829313320B1
:1056A0003BB3FFF7FBFD40F04101C9B23320FFF7E8
:1056B0009FFD19213B20FFF79BFDD4F818313120C5
:1056C000082B00F28E80FFF7E9FD00F07F0131200A
:1056D000FFF78EFD00213020FFF78AFDD4F8183146
:1056E000082B22D8DFE803F0103C4854606C78782F
:1056F0007800FFF7D3FD00F0BE0141F00101332037
:10570000FFF776FD1D21D5E748212F20FFF770FD1B
:10571000D4F8E000FAF774FE3FA3D3E90023FAF7C8
:1057200033FDFBF7A5F9FFF76FFD94F8273194F8E7
:105730002A61002B5CD01D211120FFF759FD40206C
:10574000FFF7ACFD00F033014020FFF751FD0021D1
:105750000F20FFF74DFD00210D20FFF749FD42E727
:1057600044212F20FFF744FDD4F8E000FAF748FE6B
:105770002BA3D3E90023D2E744212F20FFF738FDE4
:10578000D4F8E000FAF73CFE27A3D3E90023C6E7EC
:1057900044212F20FFF72CFDD4F8E000FAF730FE6B
:1057A00023A3D3E90023BAE744212F20FFF720FDEC
:1057B000D4F8E000FAF724FE1FA3D3E90023AEE7F4
:1057C00044212F20FFF714FDD4F8E000FAF718FE6B
:1057D0001BA3D3E90023A2E740212F20FFF708FDF8
:1057E000A3E7FFF75BFD60F07F01C9B23120F5E769
:1057F0001F211120FFF7FCFC4020FFF74FFD00F0B8
:105800003F01A1E726B10520BDE8F840FFF76EBED5
:105810000620F9E7F8BD00BF000000000082BE408E
:1058200000000000005AC440000000000082CE408A
:10583000000000008057D440000000008084DE405B
:1058400000000000C058E440741A0020C01000207E
:10585000AC1B00200000F03F00002440000020406E
:1058600000408F4000001040601A002010B5254C09
:1058700001462548FFF7A5F894F8DD3063B1012B08
:1058800024D00223204884F8DC30FEF7DFFFBDE897
:1058900010400320FFF72ABE4020FFF7FFFC00F076
:1058A000030141F010014020FFF7A2FC4120FFF767
:1058B000F5FC00F03E014120FFF79AFC3520FFF790
:1058C000EDFC00F03F0084F81201DAE794F827318C
:1058D00073B1F5211120FFF78BFC4020FFF7DEFCB0
:1058E00000F0330141F040014020FFF781FCC8E7A0
:1058F000F7211120FFF77CFC4020FFF7CFFC00F0E0
:105900003F01EFE7741A00204C1A002010B50D4C2F
:1059100094F8DD30012B13D1FA211120FFF768FC38
:105920004020FFF7BBFC00F03F014020FFF760FC88
:105930000323072084F8DC30BDE81040FFF7D6BD14
:1059400010BD00BF741A0020194B10B593F8DD206C
:10595000044682422AD0012C83F8DD004FF000007B
:1059600013D0FFF7C3FD0120FFF798FC00F07F0183
:105970000120FFF73DFC00214020FFF739FC3021DA
:10598000BDE810404120FFF733BCFFF7AFFD2046D4
:10599000FFF784FC60F07F01C9B22046FFF728FCC6
:1059A00000214020FFF724FC0021E9E710BD00BFE3
:1059B000741A0020000000003B4B70B53B49C3F84F
:1059C00000013B48FEF73AFF38493A48FEF736FFF8
:1059D00036493948FEF732FFFFF7C6FB0920FFF7CB
:1059E0005DFC06460620FFF759FC04460720FFF73A
:1059F00055FC000240EA04440820FFF74FFC204316
:105A0000FAF7FEFC26A3D3E90023FAF76FFDFBF7B4
:105A10002FF8002105460920FFF7EAFB3B20FFF79E
:105A20003DFC40F04001C9B23B20FFF7E1FB3B20C9
:105A3000FFF734FC8306FAD42048FFF7E5FB3B2050
:105A4000FFF72CFC40F04001C9B23B20FFF7D0FB30
:105A50003B20FFF723FC10F02004F9D13146092048
:105A6000FFF7C6FB2846FFF7CFFB2046FFF73EFDBA
:105A70001348FFF7BBFA134D285DFFF765FF2B199D
:105A8000997858780334FFF7B3FB302CF4D1002019
:105A9000FFF75AFF00220C4B83F8DC2070BD00BFDB
:105AA0000000000080844E40C0100020DD6000082F
:105AB0004C1A0020AC1B0020601A002000A1BC334F
:105AC0000800002088750008741A002070B50E4682
:105AD00005461446FFF738FF3046FFF795FB0520D3
